{
  "transactions": [
    {
      "hash": "0x4eee5d1cba5d8d472f462fd56345b1a558cdf9b63cb328b389445072129e7508",
      "transactionType": "CALL",
      "contractName": null,
      "contractAddress": "0x779877a7b0d9e8603169ddbd7836e478b4624789",
      "function": "transferAndCall(address,uint256,bytes)",
      "arguments": [
        "0x9DdfaCa8183c41ad55329BdeeD9F6A8d53168B1B",
        "2000000000000000000",
        "0xa2b48a8a45d483503658226283afd2394288ac1940179ba3fd0262a76b183d00"
      ],
      "transaction": {
        "from": "0xc421293c5816ba9ae1cd9295f904155bfe355f21",
        "to": "0x779877a7b0d9e8603169ddbd7836e478b4624789",
        "gas": "0x1603d",
        "value": "0x0",
        "input": "0x4000aea00000000000000000000000009ddfaca8183c41ad55329bdeed9f6a8d53168b1b0000000000000000000000000000000000000000000000001bc16d674ec8000000000000000000000000000000000000000000000000000000000000000000600000000000000000000000000000000000000000000000000000000000000020a2b48a8a45d483503658226283afd2394288ac1940179ba3fd0262a76b183d00",
        "nonce": "0x41",
        "chainId": "0xaa36a7"
      },
      "additionalContracts": [],
      "isFixedGasLimit": false
    }
  ],
  "receipts": [
    {
      "status": "0x1",
      "cumulativeGasUsed": "0xfcef15",
      "logs": [
        {
          "address": "0x779877a7b0d9e8603169ddbd7836e478b4624789",
          "topics": [
            "0xddf252ad1be2c89b69c2b068fc378daa952ba7f163c4a11628f55a4df523b3ef",
            "0x000000000000000000000000c421293c5816ba9ae1cd9295f904155bfe355f21",
            "0x0000000000000000000000009ddfaca8183c41ad55329bdeed9f6a8d53168b1b"
          ],
          "data": "0x0000000000000000000000000000000000000000000000001bc16d674ec80000",
          "blockHash": "0xd1ce677a2b56f15033cfaf341e6ed98f595c75b7495b6563b2f452c360dd1e51",
          "blockNumber": "0x82c025",
          "blockTimestamp": "0x68516fe8",
          "transactionHash": "0x4eee5d1cba5d8d472f462fd56345b1a558cdf9b63cb328b389445072129e7508",
          "transactionIndex": "0xb3",
          "logIndex": "0x12a",
          "removed": false
        },
        {
          "address": "0x779877a7b0d9e8603169ddbd7836e478b4624789",
          "topics": [
            "0xe19260aff97b920c7df27010903aeb9c8d2be5d310a2c67824cf3f15396e4c16",
            "0x000000000000000000000000c421293c5816ba9ae1cd9295f904155bfe355f21",
            "0x0000000000000000000000009ddfaca8183c41ad55329bdeed9f6a8d53168b1b"
          ],
          "data": "0x0000000000000000000000000000000000000000000000001bc16d674ec8000000000000000000000000000000000000000000000000000000000000000000400000000000000000000000000000000000000000000000000000000000000020a2b48a8a45d483503658226283afd2394288ac1940179ba3fd0262a76b183d00",
          "blockHash": "0xd1ce677a2b56f15033cfaf341e6ed98f595c75b7495b6563b2f452c360dd1e51",
          "blockNumber": "0x82c025",
          "blockTimestamp": "0x68516fe8",
          "transactionHash": "0x4eee5d1cba5d8d472f462fd56345b1a558cdf9b63cb328b389445072129e7508",
          "transactionIndex": "0xb3",
          "logIndex": "0x12b",
          "removed": false
        },
        {
          "address": "0x9ddfaca8183c41ad55329bdeed9f6a8d53168b1b",
          "topics": [
            "0x1ced9348ff549fceab2ac57cd3a9de38edaaab274b725ee82c23e8fc8c4eec7a",
            "0xa2b48a8a45d483503658226283afd2394288ac1940179ba3fd0262a76b183d00"
          ],
          "data": "0x00000000000000000000000000000000000000000000000029a2241af62c00000000000000000000000000000000000000000000000000004563918244f40000",
          "blockHash": "0xd1ce677a2b56f15033cfaf341e6ed98f595c75b7495b6563b2f452c360dd1e51",
          "blockNumber": "0x82c025",
          "blockTimestamp": "0x68516fe8",
          "transactionHash": "0x4eee5d1cba5d8d472f462fd56345b1a558cdf9b63cb328b389445072129e7508",
          "transactionIndex": "0xb3",
          "logIndex": "0x12c",
          "removed": false
        }
      ],
      "logsBloom": "0x00000004000000200000000000000000000000080020000000000000020020000000000000000000000000000000000000000000000000000000000000000000000000000000000000000008000000000000000000000000000420000020000008000000000000000000000000000000000000000000000000000010000040000000000000000000000000010000800000000020000000000000000000000000000000000000002000000000010000000000000000000000000004000000000000000002000000000000000000000000000000000000000100000000000000000010000000000000800000000000000000000000000000000400000000000000",
      "type": "0x2",
      "transactionHash": "0x4eee5d1cba5d8d472f462fd56345b1a558cdf9b63cb328b389445072129e7508",
      "transactionIndex": "0xb3",
      "blockHash": "0xd1ce677a2b56f15033cfaf341e6ed98f595c75b7495b6563b2f452c360dd1e51",
      "blockNumber": "0x82c025",
      "gasUsed": "0xf0d9",
      "effectiveGasPrice": "0xe8368d",
      "from": "0xc421293c5816ba9ae1cd9295f904155bfe355f21",
      "to": "0x779877a7b0d9e8603169ddbd7836e478b4624789",
      "contractAddress": null
    }
  ],
  "libraries": [],
  "pending": [],
  "returns": {},
  "timestamp": 1750167531,
  "chain": 11155111,
  "commit": "281397d"
}